:020000020000FC
:0200000037C007
:100068000000FEFCF8F4FF000FEF0DBF08E00EBF24
:10007800E8E6F0E0C0E0D0E0B591B993E037E1F709
:10008800A89574BE08E10093600000E10093600049
:1000980000E105BF6BB865B868B86AB864B867B8F6
:1000A800209870926F00709270007092B0007092F9
:1000B800B100E0E0F1E014E07192ED3CF107E1F706
:1000C80000E21EE410938B0000938A0001E800937D
:1000D800810000916F00046000936F0010D10EE45E
:1000E8000093B3000091B00002600093B00000914B
:1000F800B10002600093B1000091700002600093AB
:10010800700078940AE0FDD211D40D0D43504D20B3
:100118006F6E20616E204156522C2076322E3300AD
:100128000E949A042072313835000E949A040D000A
:100138000E949A0454657374696E672052414D3A5F
:100148002066696C6C2E2E2E0000A0E0B0E00B2F0C
:100158000A277AD2E0F70E949A04776169742E2EF2
:100168002E0018E00FEFCDD21A95E1F70E949A04FD
:100178007265726561642E2E2E00A0E0B0E0222721
:10018800F894BBB928B8ABB938B87AB848B800C041
:1001980000C009B168B878946AB81B2F1A270117EC
:1001A80049F1222359F40E949A040D000E949A04EE
:1001B8004164647220787820797920000E949A043A
:1001C8000D00302F8D017DD387D00B2F0A27102FDC
:1001D8007CD382D0032F79D37FD0012F032701232B
:1001E80080D07AD0012F0327109501237AD0239548
:1001F800203110F4119620F6222359F00E949A0417
:100208002053797374656D2068616C74656421008E
:10021800FFCFA0E0B0E006E717D2E8F70E949A0403
:100228000D000E949A04496E6974696E67206D6DAD
:10023800632E2E2E00000E949A040D000E94490A87
:100248000F7739F50E949A044E6F20626F6F7461C0
:10025800626C652043502F4D206469736B20666F74
:10026800756E642120506C65617365206368616EEA
:100278006765204D4D432F53442D436172642E0012
:100288000E949A040D0012E10FEF3BD21A95E1F794
:10029800C5CF0E94A10A0E949A040D000E949A04E8
:1002A80050617274696E697420646F6E652E000007
:1002B8000E943309709230027092310270923202B9
:1002C80070923302A0E0B0E2A0933502B0933602F8
:1002D8000E943A090C94760D0F9300E260D10F91B9
:1002E80008951F932F93102F28E00DE2110F08F4A3
:1002F80008E555D12A95C9F72F911F91089500EC6B
:100308000093800000E206BB00916F00006200933A
:040318006F000895D5
:0200280079C19C
:10031C000F930FB70F93FF93EF93E0918600F0913B
:10032C0087001F9310E40091810001270093810046
:10033C0000E206BB009100010030A9F45F0170924D
:10034C00020101E00093000102E000930101189BFF
:10035C0089C0E1E8E0938100F0E2F6BB7092000105
:10036C00709201017FC0013069F585015F01E01BCE
:10037C00F10BE251F440B0F000E8E352F84060F0C9
:10038C000695D8F7E352F84008F455C07092010175
:10039C0070920001516066C00093020102E000936C
:1003AC00000160C001E80093810000E206BB70927E
:1003BC0000010FE3F2D0EE5EFB4F0F2F84D20E2F15
:1003CC0082D250C00230D9F485015F01E01BF10BE1
:1003DC00E251F440009102010894079548F0E35271
:1003EC00F840D0F70093020103E0009300013AC0FB
:1003FC0011E01093000112E01093010120C00330B2
:10040C0099F485015F01E01BF10BE251F44000917E
:10041C000201069580F0E352F840D8F700930201F0
:10042C0002E0009300011EC0E1E8E0938100E0E2ED
:10043C007092000117C07092010170920001F0914E
:10044C000501F03878F4F395F0930501EBE0F091A9
:10045C000601EF0FF395FF77F0930601F1E008F436
:10046C00F39500831F91EF91FF910F910FBF0F91A7
:02047C001895D1
:02002C0028C2E8
:10047E000F930FB70F93FF9300918800F0918900AF
:10048E000D5DF74FF09389000093880000910301F2
:10049E000023A9F00A9500930301F9E00F17F0E885
:1004AE0039F00091040100FFF0EC06950093040171
:1004BE00F0938000FF910F910FBF0F91189500914F
:1004CE0008010023E1F0EF930A9500930801EBE891
:1004DE00F1E000910A01E00F08F4F39503950F7710
:1004EE0000930A0100810095009304010AE0009335
:1004FE000301EF91FF910F910FBF0F91189500EC33
:10050E000093800000916F000D7F00936F00FF91AC
:10051E000F910FBF0F911895709200010F930091DC
:10052E000201002311F4516019C0E02FE095E0782C
:10053E0006950E2BE8F7F0910501F03878F4F39557
:10054E00F0930501EBE0F0910601EF0FF395FF77C5
:10055E00F0930601F1E008F4F39500830F910895EE
:10056E00009105010023E1F3FF93EF93EBE0F1E03F
:10057E0000910701E00F08F4F39503950F770093B0
:10058E000701F894009105010A95009305017894EE
:10059E000081EF91FF910895FF93EF93EFB7EF93E3
:1005AE000F93009108010038E0F7EBE8F1E00091BD
:1005BE000901E00F08F4F39503950F7700930901F5
:1005CE000F910083F894F0910801F395F0930801D0
:1005DE00FA9529F4F0916F00F260F0936F00EF91AD
:1005EE00EFBFEF91FF9108950F9300910801002343
:1005FE00E1F70F910895F894BBB928B8ABB938B8A4
:10060E007AB848B800C000C009B168B86AB8789422
:10061E000895F894BBB928B8ABB938B80BB958B827
:10062E0068B878940895E7DF11960F93E4DF11967A
:10063E00102F0F910895DFDF11960895EADF1196BE
:08064E00012FE7DF119608956A
:02001C001CC303
:10065600409B1895419840980000409A00004098A9
:06066600419A409A18952C
:020030001DC3EE
:10066C00EF93EFB7EF93FF93E0918A00F0918B003B
:10067C00E05EF14BF0938B00E0938A00E091010176
:10068C00E15020F0E093010109F447DFE0910B0207
:10069C00E15010F0E0930B02E0910C02E15010F0ED
:1006AC00E0930C02E0911902F0911A023196E0935A
:1006BC001902F0931A02E83EE3E0FE07D8F07092BC
:1006CC00190270921A02E0911B02E395E0931B024F
:1006DC0089F4E0911C02E395E0931C0259F4E0913B
:1006EC001D02E395E0931D0229F4E0911E02E395AF
:1006FC00E0931E02FF91EF91EFBFEF9118950093DD
:10070C000B0200910B020030E1F708950FEF11542A
:10071C0048F0E3E1F2E039F0163020F4E10F08F490
:10072C00F3950081089516E0F894068101931A95CB
:10073C00E1F778940091130208951054B8F061F425
:10074C000130F9F0023031F00F3029F1003109F4A9
:10075C0062C0089520D015C01A95E3E1F2E039F09B
:10076C00163020F4E10F08F4F3950083089500830C
:10077C00359616E0F894068101931A95E1F7789472
:10078C000895EDE0F2E016E0F894048501931A95D3
:10079C00E1F778940895DF93CF93EDE0F2E0F894CD
:1007AC00C4851191C11BD4851191D10B18F4C8517A
:1007BC00DC4F0894DF93CF930485C1910C0B148507
:1007CC00D1911D0B2485C1912C0B78943485D1913A
:1007DC003D0B0E949A040D000E949A0454696D65A9
:1007EC00722072756E6E696E672E20456C61707327
:1007FC0065643A20000033D00E949A042E000F91B9
:10080C001F9120E030E02BD00E949A04732E000040
:10081C00CF91DF910895E9E1F2E0F89401910F9303
:10082C0001910F93019111912191789431910E9432
:10083C009A040D000E949A04557074696D653A20F3
:10084C0000000DD00E949A042C0020E030E01F9193
:10085C000F9105D00E949A04732E00000895DF9327
:10086C00CF934F933F932F931F930F93CC2740E23B
:10087C00DD27000F111F221F331FDD1FDA3010F090
:10088C00DA5003954A95A9F7DA30D05DDF93C3951A
:10089C00071517052705370551F700E3C3301CF47E
:1008AC000F93C395FBCF0F9178DECA95E1F70F91AB
:1008BC001F912F913F914F91CF91DF9108950F93FD
:1008CC00012F01D00F91029501D002950F930F705B
:1008DC000A3008F0095F005D60DE0F91089500E2B8
:1008EC005CCE1F930F930E949A040D008F01E7DFDB
:1008FC0010E1F5DF183009F4F2DFF1DF0191E3DFED
:10090C001A95C1F77097EBDFEADF10E10191003225
:10091C0010F00F3708F00EE240DE1A95B9F7709719
:10092C00DEDF0F911F910895FF93EF93DF93CF9329
:10093C000F93DEB7CDB7EF81FE81EE0FFF1F059150
:10094C00003031F02ADE0D30D1F70AE026DEF7CF89
:10095C003196F695E795EF83FE830F91CF91DF915A
:10096C00EF91FF910895042FACD00E949A0420209F
:10097C0041203D00092DA7DF0E949A04204243200C
:10098C003D00188109819BDF0E949A042044452078
:10099C003D001A810B8193DF0E949A0420484C2061
:1009AC003D001C810D818BDF0E949A042053503D29
:1009BC000000870184DF0E949A042050433D000010
:1009CC008C017DDF0E949A04202020202020200012
:1009DC00DC01F894BBB928B8ABB938B87AB848B8C8
:1009EC0000C000C009B168B878946AB86CDF0E9486
:1009FC009A0420001196F894BBB928B8ABB938B852
:100A0C007AB848B800C000C009B168B878946AB820
:100A1C005ADF0E949A0420001196F894BBB928B8AA
:100A2C00ABB938B87AB848B800C000C009B168B8DA
:100A3C0078946AB848DF0E949A0420000C8541D053
:100A4C000E949A04202041273D000D853CDF0E9426
:100A5C009A04204243273D001E810F8130DF0E9403
:100A6C009A04204445273D001885098528DF0E94FB
:100A7C009A0420484C273D001A850B8520DF0E94E4
:100A8C009A042049583D00001E850F8518DF0E94EE
:100A9C009A042049593D00001889098910DF0E94E9
:100AAC009A0420493D000A890EDF0E949A042020F6
:100ABC002020202020000895535A204820564E43D1
:100ACC0000001F93102F30DF0D00EF93FF93E4EC29
:100ADC00FAE00591002339F0003219F017FF00E21B
:100AEC005CDD111FF6CFFF91EF911F9108950093DC
:100AFC001F021093200208953F932F9320911F0201
:100B0C0030912002020F131F30F000931F0210933C
:100B1C002002890102C0002711272F913F910895CF
:100B2C00DC2FCB2FBA2FA0E0BB0FCC1FDD1F0895FD
:100B3C006EBC0DB407FEFDCF0EB508950EBD0DB401
:100B4C0007FEFDCF08951F9312E0F2DF60920C02B6
:100B5C00EFDF061511F401E006C000910C02003025
:100B6C00B9F71A9599F71F91002308952A9AE0DF97
:100B7C00002708952A98E7DFC9F30F6F089517FF30
:100B8C0013C0DF93CF93BF93AF931F93C0E0D0E01C
:100B9C00DE0117E3F4DF1F91AF91BF91CF91DF918D
:100BAC00023010F000230895E1DFE4DF11F40FEFC1
:100BBC001EC0012F0F770064C1DFDEBDC0DFCEBDCC
:100BCC00BEDFBEBDBCDFAEBDBADF05E9103021F023
:100BDC0007E8183009F001E0B1DF1C3009F4A8DF98
:100BEC000AE0102EA5DF07FF02C01A94D9F70023E4
:100BFC00089500910B02002329F43A9519F004E6AC
:100C0C0000930B02089500912102016000932102D0
:100C1C0003E50CBD7DBC1AE08BDF1A95E9F720E0EB
:100C2C0010E0C0E0D0E0DE01AADF013009F049C0DD
:100C3C003AE004E600930B0218E0C0E0D0E0B1E02B
:100C4C00AAEA9DDF013031F514E0E3E2F2E070DF57
:100C5C0001931A95E1F734970281013003810A0759
:100C6C00C9F419EAD0E4C0E0B0E0A0E088DF19F0E4
:100C7C00C0DFE1F70EC01AE3D0E081DF51F414E0DD
:100C8C0057DF01931A95E1F734972460008106FD34
:100C9C00286017C019EAC0E0D0E0DE0170DF023036
:100CAC0018F4226019EA02C0216011E068DF19F023
:100CBC00A0DFE1F706C010E1A0E0B2E060DF09F0D0
:100CCC0020E02093220252DF00912102222319F00E
:100CDC000E7F009321027CBC0895EDE8F2E00090B9
:100CEC00210203E001FC089500E50CBD7DBC0091E0
:100CFC00220203FF15DF11E142DF11E0E9F4C0E04D
:100D0C00D2E008EC00930B0213DF061521F40090DF
:100D1C000B020714C9F70E3F79F40ADF6EBC21975A
:100D2C0039F001930DB407FEFDCF0EB56EBCF7CFB5
:100D3C00019305DFFDDE10E019DF7CBC012F089567
:100D4C000090210203E001FC089500E50CBD7DBC80
:100D5C000091220203FFE4DE11E111DF11E079F5CD
:100D6C00C0E0D2E008EC00930B02E2DE061521F4A1
:100D7C0010910B021030C9F70E3F11E001F5D8DECF
:100D8C006EBC2197C9F0E715F70539F031970DB412
:100D9C0007FEFDCF0EB56EBCF4CFE02F0DB407FEF1
:100DAC00FDCF0EB56EBCF02F219731F00DB407FEC0
:100DBC00FDCF0EB56EBCF8CFC2DEBADE10E0D6DECB
:100DCC007CBC012F0895EDE8F2E00090210203E0D5
:100DDC0001FC089500E50CBD7DBC0091220203FFCF
:100DEC009FDE18E1CCDEB1F4AEDEA1F00EEF0EBD4D
:100DFC00C0E0D2E001910DB407FEFDCF0EBD2197EE
:100E0C00C9F79DDE0FEF9ADE99DE92DE0F71053089
:100E1C0010E009F001E0AADE7CBC012F089500016E
:100E2C0067076C070101B702D3020201B702D302B4
:100E3C00030150074D0704015B0761070D098C077F
:100E4C0087071601BA07140940078C03A3034F0147
:100E5C00760778070000689401C0E894DF93CF937D
:100E6C00EAE2FEE005903591303081F0212F201917
:100E7C0010F0231710F03496F5CF0EF4329605903F
:100E8C001590F0010995CF91DF9108950FEFCF9157
:100E9C00DF91089500271091050117110160109141
:100EAC000801103809F0026008950027109105011F
:100EBC00171157CB089510910801103809F06DCB1C
:100ECC0008950091050107110FEF08952DDD0D0018
:100EDC000E949A0444656275673A2000F4DC089518
:100EEC0000E0089500FB51F90895F9E0FE9FE5E458
:100EFC00F2E0E00DF11D0895EEE2F2E0E20FF71DD5
:100F0C000895FADF0083213031F00895223079F012
:100F1C00F3DF00810895A0912E02B02FE7E2F2E0FA
:100F2C0026E08ADB01932A95E1F770D008951091A1
:100F3C002D02009130020830A8F4112339F466D048
:100F4C00A2D20F931F911F7700913002011740F42A
:100F5C005BD0012B21F420913002022F06D1089591
:100F6C0000E0089500E008950091400208950A3CC5
:100F7C0043504D5F4469736B3E00001A0003070039
:100F8C00F2003F00C00010000200028000051F01AB
:100F9C00FF07FF03FF0000010000002000051F01F8
:100FAC00F907FF03FF0000010600DF93CF9310E168
:100FBC00CDE8D4E0059109931A95E1F7CF91DF9133
:100FCC00089509931FE0019109931A95E1F708958B
:100FDC000590002031F009910590001911F40020C2
:100FEC00B9F70895115030F009910590001919F4D2
:100FFC000020C1F7001B0895A0912702B091280290
:10100C00000FA00FB71D0895F7DF0ECBA09127029C
:10101C00B0912802109771F028E000E010E00FDB8F
:10102C002A95D9F700912B0210912C020715170560
:10103C0009F05DDD0027089500270895CDE8D2E082
:10104C00EAE7FFE01591CEDF41F4EDEAF2E0CDE8FE
:10105C00D4E001E0B6DF0F6F089500270895E22F6A
:10106C0044DF05811681013000E4100751F4EDE8EE
:10107C00F2E010E00191053E21F41A95D9F70F6FBB
:10108C00089500270895E22F30DF05811681003086
:10109C0000E41007A1F4C3E0D3E0EAE7FFE0159108
:1010AC00A1DF59F0EDE8F2E012E000240191053ED9
:1010BC0031F40A94D9F71A95C9F70F6F08950027E0
:1010CC0008952F9300E010E09CD1B6DF71F4B6DFE9
:1010DC0061F4D9DFE6EAFFE031F4C1DFE6E9FFE0D5
:1010EC0011F4E6E8FFE061DF0F6F2F910895E9DF5F
:1010FC00D1F1E22FFADECDE8D4E008810F70108137
:10110C00107F012B0083098107830A81002331F4AE
:10111C001B811F70129510870F6F089505DC0D0051
:10112C0001E4020F0E94D3020E949A043A20466FF7
:10113C00726D6174206E6F7420737570706F727441
:10114C0065643A20546F6F206D7563682073656316
:10115C00746F72732070657220747261636B2120DE
:10116C000000E2DB0D0000270895202FAADF09F410
:10117C0041C000E110E0C0DC09F43CC0D801E8013A
:10118C0000E010E05CDA16960091290210912A0218
:10119C0056DA0FE010E0B0DC59F1D801EEE8F4E0DB
:1011AC00019150DAED39E1F71F978D01DE011A96A6
:1011BC0046DA0091990410919A040715170511F05D
:1011CC009BDCB1F03CDA0091930410919404085F1D
:1011DC001F4F1695079516950795169507958CDC58
:1011EC0039F02DDA022F08DF8E0129DA0F6F0895FE
:1011FC008E017DDC0027089510811F70109337023B
:10120C00178110933802108512951F7000240394D7
:10121C00000C1A95E9F700923902089507FD24C0D5
:10122C0006FD36C004FD1DC005FD15C00E949A04C4
:10123C004449534B20492F4F3A20496E76616C69D3
:10124C00642046756E6374696F6E20636F64653AD3
:10125C00200039DBE2C570922D02F79870923A02A9
:10126C000895F69BF798089570924002F49AE091D5
:10127C0030023BDE0081007F003009F408C0BCDF87
:10128C0070923A02F59A02E0009341025EC0089512
:10129C0070924002F498E091300227DE1081107FAA
:1012AC00103009F451C0A8DF0370009341020230E2
:1012BC00A1F40091390200933A020091300200939C
:1012CC003B020091310200933C02009132020093E8
:1012DC003D020091330200933E0200913A0200233A
:1012EC0079F10A9500933A020091300210913B0279
:1012FC00011731F500913C0210913D022091310211
:10130C003091320202171307D9F400913302109175
:10131C003E020117A9F4139510933E020090380277
:10132C00101560F070923E0200913C0210913D024B
:10133C000F5F1F4F00933C0210933D02F59805C0C0
:10134C0070923A02F59A01C00895A0913302B0E070
:10135C00C0E000913702A00FB71D209131023091EF
:10136C00320200913802209FA00DB11D309FB00DAC
:10137C00C11D0A2F03700F9302E0C695B795A79570
:10138C000A95D9F78D012091300241D0EDE8F2E0B9
:10139C0000E81F91109FE00DF11DA0913502B09156
:1013AC00360220E8F49913C0F69AF894BBB928B821
:1013BC00ABB938B87AB848B800C000C009B168B841
:1013CC0078946AB8019311962A9579F70DC001911A
:1013DC00F894BBB928B8ABB938B80BB958B87894ED
:1013EC0068B811962A9599F700914102013009F0DD
:1013FC00089500914002002309F008952CD0F6982E
:10140C000895F59A04D0009140020023089570923B
:10141C0040020EB2F79A07FE14C00090420220154B
:10142C0039F400904302109044020015110591F01C
:10143C00F69B07C02F931F930F930DD00F911F9105
:10144C002F91009343021093440220934202F5998A
:10145C000ED0F6980895E091420247DD0081007F9E
:10146C00003209F415C3003109F402C10895E0916A
:10147C0042023BDD0081007F003209F420C30031C1
:10148C0009F4FCC0089570922D02C5E4D2E018E472
:10149C0079921A95E9F7B7DB007031F4C0E0D0E02F
:1014AC00DE011BDC002311F000270895C5E4D2E017
:1014BC0020E000918B0410918C043AEA0535130757
:1014CC0079F0239520932D0200E410E118837982A2
:1014DC007A827B827C827D820E8320E008DE1FC0B4
:1014EC00EBE4F4E034E00481023539F4D2D02395F6
:1014FC0020932D022996283091F070963A9599F701
:10150C00EBE4F4E034E004810E3011F0063021F409
:10151C00E9D0FAD0DDD003C070963A95A1F7222716
:10152C0000912D02201719F0E2DD2395F9CF0091DF
:10153C002D0200230895E5E4F2E0C0912D02B1E400
:10154C000181128123813481EFD90D000715170514
:10155C002705370571F0A081A07FA03119F425D0A3
:10156C002DD009C0A03219F420D035D004C04BD0F6
:10157C0002C01BD055D073D90E949A042C207369D9
:10158C007A653A2000000581168120E030E036951E
:10159C0027951795079563D90E949A044B422E0004
:1015AC003996B395CA9561F608950F930B2F0E9447
:1015BC00D3020AE30E94D3020F9108950E949A0469
:1015CC0043502F4D20706172746974696F6E206185
:1015DC00743A200008950E949A04464154313620F2
:1015EC0046696C652D496D6167652061743A200010
:1015FC0008950E949A0452616D6469736B20617442
:10160C003A20000008950E949A04556E6B6E6F7715
:10161C006E20456E7472792061743A200000089532
:10162C000E949A04417373756D696E672043502F45
:10163C004D20696D6167652061743A200000089542
:10164C00E091420252DC0091430210914402A581C8
:10165C00B6810A171B0710F000270895A181B281EB
:10166C00C381D481A00FB11FC71DD71D0F6F089563
:10167C00E7DF61F0A8DB002349F405C0E1DF31F0BE
:10168C002CDB002319F47092400208956092400202
:10169C00089500E108830085098301850A8302858A
:1016AC000B8303850C8306851785012B29F4048590
:1016BC000D8305850E8302C06D826E820895709233
:1016CC009D04CEE9D4E07992799279927992089539
:1016DC00CF93CFEFC093AE04C093AF04C093AD04CF
:1016EC00CF910895CF93DF93C1E0C0939D04CEE9D1
:1016FC00D4E000850993018509930285099303853C
:10170C000993DF91CF910895C0919D04C13069F484
:10171C00C0912D02C83049F0EEE9F4E0A081B1810E
:10172C00C281D381DADA002311F000270895EAE9A7
:10173C00F2E000810093A204EDE9F2E00081009355
:10174C00AD04EEE9F2E001910093A3041081109333
:10175C00A404E3EAF2E001910093AE04108110932B
:10176C00AF04EBE9F2E001911081EEE9F4E0A08125
:10177C00B181C281D381A00FB11FC71DD71DA0930A
:10178C00A504B093A604C093A704D093A804E5EADB
:10179C00F4E0A081B181C281D3810091AE0410919B
:1017AC00AF042091AD04271531F0A00FB11FC71D58
:1017BC00D71D2A95F8CFA093B104B093B204C0936F
:1017CC00B304D093B404E091A304F091A404F6956F
:1017DC00E795F695E795F695E795F695E795A0913B
:1017EC00B104B091B204C091B304D091B404AE0F63
:1017FC00BF1FC71DD71DA093A904B093AA04C09303
:10180C00AB04D093AC0401E40093AD0400E000936E
:10181C00B0040091A3040093AE040091A4040093BF
:10182C00AF04A091B104B091B204C091B304D091B3
:10183C00B4040091B004A00FB71DC71DD71D4DDA1D
:10184C00002311F000270895EDE8F2E010E000818C
:10185C00033469F50181003551F502810D3439F5F8
:10186C000381043421F50481033509F505810B341A
:10187C00F1F406810F35D9F42091AD0407810217DC
:10188C00B1F40085093499F401850D3481F4028595
:10189C00073469F4E093B504F093B6041093B704DD
:1018AC0028C0E091B504F091B6041091B704B0963D
:1018BC001395103109F0CBCF2091AE043091AF04C9
:1018CC00211B37092093AE043093AF04271537053D
:1018DC0031F00091B00403950093B004A2CF0091B5
:1018EC00AD0403950093AD041AE501170CF48ECFEB
:1018FC002DC0C5E4D2E020912D02222319F02996A7
:10190C002A95FBCF00E20883028D0983038D0A839D
:10191C0000E00B830C83048CA58DB68DE78D07102E
:10192C001196E71DE695B795A795A71DB71DE71D61
:10193C00EE2311F0AFEFBFEFAD83BE8300912D020C
:10194C00039500932D02083009F0ABCF08950DD00C
:10195C000091A904A00F0091AA04B01F0091AB0440
:10196C00C01F0091AC04D01F0895CC27DD2702E0E6
:10197C00A01BB7090091A2040695002331F006952F
:10198C00AA0FBB1FCC1FDD1FF8CF0895E0914202B8
:10199C00ACDAC181D281A715B705E1F0AF93BF9343
:1019AC00FF27EC2FEE0FFF1F0D2FA091A504B09178
:1019BC00A604C091A704D091A804A00FB71DC71D01
:1019CC00D71DBED9BF91AF91CE2FDF2FE1E0AE1B5B
:1019DC00B709E1CF0895E091420287DA0091430202
:1019EC0010914402A581B6810A171B0710F000273D
:1019FC000895A02FB12FC72DD72DE091A204E69505
:101A0C00EE2331F0D695C795B795A795E695F8CF07
:101A1C00CA2FE091A204E695EE2319F0CC0FE695BF
:101A2C00FBCFE02FEC1BE093B004C091AD04D09140
:101A3C004202CD1789F4C091AE04D091AF04CA17FD
:101A4C0059F4DB1749F4A091B104B091B204C091E0
:101A5C00B304D091B40414C0C0914202C093AD043D
:101A6C00A093AE04B093AF0491DFAC2FBD2F6FDF0A
:101A7C00A093B104B093B204C093B304D093B40454
:101A8C00E091B004AE0FB71DC71DD71D0F6F0895A1
:101A9C00A2DF91F00E94E906002359F00DC0F3DC9F
:101AAC000F7751F098DF41F00E94E906002321F4F2
:101ABC0000C07092400208956092400208958BDF3E
:101ACC00D9F30BD90023A9F3F7CFDDDC0F77A1F302
:101ADC0082DF91F302D9002379F7089508950895D0
:101AEC0080E090E2C8EBD4E0F09855270E949A046D
:101AFC000D000E949A044F6B2C205A38302D435005
:101B0C0055206973206C6976652100000E949A0447
:101B1C000D00571111C0F8949BB928B88BB938B87F
:101B2C007AB848B800C000C0E9B168B878946AB80F
:101B3C000196F9E10995EDCF51FF06C0913020F0E7
:101B4C009C3D10F40E94B90450FF11C05A7F0E94B2
:101B5C009A040D000E949A04427265616B206465C0
:101B6C0074656374656421200000872D972DD3CF95
:101B7C000895642F792D08956981788108956B817A
:101B8C007A8108956D817C810895B881A981F8943A
:101B9C00BBB928B8ABB938B87AB848B800C000C0DF
:101BAC0099B068B878946AB80895BA81AB81F89402
:101BBC00BBB928B8ABB938B87AB848B800C000C0BF
:101BCC0099B068B878946AB80895BC81AD81F894DE
:101BDC00BBB928B8ABB938B87AB848B800C000C09F
:101BEC0069B168B878946AB80895D701F894BBB90C
:101BFC0028B8ABB938B87AB848B800C000C069B1D9
:101C0C0068B878946AB81196F894BBB928B8ABB98F
:101C1C0038B87AB848B800C000C079B168B87894C0
:101C2C006AB80895F8949BB928B88BB938B87AB8C3
:101C3C0048B800C000C069B168B878946AB8019619
:101C4C000895DC011196F894BBB928B8ABB938B833
:101C5C007AB848B800C000C069B168B878946AB85E
:101C6C000895F8949BB928B88BB938B87AB848B8A5
:101C7C0000C000C069B168B878946AB80196F8944D
:101C8C009BB928B88BB938B87AB848B800C000C02E
:101C9C0079B168B878946AB801960895DC01119707
:101CAC00F894BBB928B8ABB938B87AB848B800C002
:101CBC0000C069B168B878946AB8687370E0089528
:101CCC00962E089568830895698308956A8308950C
:101CDC006B8308956C8308956D830895972E462F1A
:101CEC0008957883698308957A836B8308957C8340
:101CFC006D830895B881A981F894BBB928B8ABB9A4
:101D0C0038B89BB858B8789468B80895BA81AB8144
:101D1C00F894BBB928B8ABB938B89BB858B8789414
:101D2C0068B80895BC81AD81F894BBB928B8ABB93B
:101D3C0038B86BB958B8789468B80895D701F89446
:101D4C00BBB928B8ABB938B86BB958B8789468B87F
:101D5C001196F894BBB928B8ABB938B87BB958B858
:101D6C00789468B808957B010895CB01089577277E
:101D7C0066230AF47095860F971F0895D701F8947F
:101D8C00BBB928B8ABB938B87AB848B800C000C0ED
:101D9C0089B168B878946AB81196F894BBB928B828
:101DAC00ABB938B87AB848B800C000C099B168B8B7
:101DBC0078946AB811967D010895D7011197F8941B
:101DCC00BBB928B8ABB938B89BB958B8789468B8CF
:101DDC001197F894BBB928B8ABB938B88BB958B8C7
:101DEC00789468B87D01CB010895F8947BB928B834
:101DFC006BB938B89BB858B8789468B808950197FF
:101E0C000E94B9040E949A04496E76616C69642040
:101E1C006F70636F646521200000FFCF019752FD46
:101E2C00089554600E94B9040E949A0443505520AE
:101E3C0068616C746564212000000895092D162FCB
:101E4C000AD80895162F09D8902E0895417001E0F4
:101E5C00600F0FB702FB47F901FB46F905FB44F98C
:101E6C0003FB42F90895417001E0900E0FB702FB9D
:101E7C0047F901FB46F905FB44F903FB42F90895C8
:101E8C0061500FB702FB47F901FB46F905FB44F91A
:101E9C0003FB42F94260089501E0901A0FB702FB70
:101EAC0047F901FB46F905FB44F903FB42F9426093
:101EBC0008956F5F7F4F08956150704008954C7E78
:101ECC00990C18F401E0902A416008954C7E969488
:101EDC0018F400E8902A41600895889440FD089415
:101EEC004C7E90FA40F997940895889440FD08949C
:101EFC004C7E97FA40F9991C0895960E0FB7FCE3A7
:101F0C00E92D449100FB40F905FB44F903FB42F930
:101F1C000895889440FD0894961E0FB7FCE3E92DB4
:101F2C00449100FB40F905FB44F903FB42F9089589
:101F3C00961A0FB7FCE3E92D449100FB40F905FB21
:101F4C0044F903FB42F942600895192D161B0FB793
:101F5C00FCE3E12F449100FB40F905FB44F903FB42
:101F6C0042F942600895889440FD0894960A0FB790
:101F7C00FCE3E92D449100FB40F905FB44F903FB1C
:101F8C0042F9426008959622FCE3E92D44914061A8
:101F9C000895962AFCE3E92D449108959626FCE3D6
:101FAC00E92D449108950D811C81600F711F6D8383
:101FBC007C830FB700FB40F905FB44F94D7F089576
:101FCC00DB010D81F894BBB928B8ABB938B80BB9A3
:101FDC0058B8789468B811960C81F894BBB928B8A5
:101FEC00ABB938B80BB958B8789468B80895DB0118
:101FFC00F894BBB928B8ABB938B87AB848B800C0AF
:10200C0000C069B168B878946AB81196F894BBB9F5
:10201C0028B8ABB938B87AB848B800C000C079B1A4
:10202C0068B878946AB80895F8947BB928B86BB9F5
:10203C0038B87AB848B800C000C069B168B87894AC
:10204C006AB8089541FD19C010E044FD04C0062F84
:10205C000F700A3030F076E0670F0DF4106108F461
:10206C00116040FD02C0603A18F070E6670F116015
:10207C00FCE3E62F4491412B089512E044FD04C08B
:10208C00062F0F700A3030F076E0671B0DF41061EC
:10209C0008F4116040FD02C0603918F070E6671B4F
:1020AC001160FCE3E62F4491412B08954D7E416075
:1020BC0008954D7F40FB44F901E04027089590942A
:1020CC0042610895D7011197F894BBB928B8ABB900
:1020DC0038B87BB958B8789468B81197F894BBB9EC
:1020EC0028B8ABB938B86BB958B8789468B87D01D2
:1020FC000895D701F894BBB928B8ABB938B87AB8F9
:10210C0048B800C000C069B168B878946AB8119634
:10211C00F894BBB928B8ABB938B87AB848B800C08D
:10212C0000C079B168B878946AB811967D010895A9
:10213C000D811C816D837C83B80108950C89037F0C
:10214C000C8B08950C890C600C8B089546FF089538
:10215C000F910F91089546FD08950F910F910895D9
:10216C0040FF08950F910F91089540FD08950F9130
:10217C000F91089542FF08950F910F91089542FD1C
:10218C0008950F910F91089547FF08950F910F91A6
:10219C00089547FD08950F910F91089508810A95B0
:1021AC00088329F0605880589709860F971D089569
:1021BC000C851D854C879D86402F912E0895E8EB4C
:1021CC00F4E026E000811681068311932A95D1F75D
:1021DC00089501970895F8949BB928B88BB938B82D
:1021EC007AB848B800C000C0E9B168B878946AB849
:1021FC000196FAE10994F198F8949BB928B88BB937
:10220C0038B87AB848B800C000C0E9B168B878945A
:10221C006AB80196FBE10994F19AF8949BB928B835
:10222C008BB938B87AB848B800C000C0E9B168B802
:10223C0078946AB80196FBE10994F8949BB928B894
:10224C008BB938B87AB848B800C000C0E9B168B8E2
:10225C0078946AB80196FCE10994F19903C0BE85A3
:10226C00AF8502C0B889A989F8949BB928B88BB9F5
:10227C0038B87AB848B800C000C009B168B87894CA
:10228C006AB80196112700230AF41095A00FB11F0C
:10229C00F894BBB928B8ABB938B87AB848B800C00C
:1022AC0000C069B168B878946AB8F8949BB928B83A
:1022BC008BB938B87AB848B800C000C0E9B168B872
:1022CC0078946AB80196FDE10995F894BBB928B8E1
:0E22DC00ABB938B86BB958B8789468B80895A3
:04320000089573C8F2
:0422EA00C1DC00CD86
:0232040074C88C
:0222EE0008CD19
:0232060074C88A
:0622F00049DCE5DDFCCC39
:0232080076C886
:0622F6006881AFDDEACCB7
:02320A0078C882
:0622FC006881C6DDE7CC9D
:02320C007AC87E
:0423020096DCE5CCB4
:02320E007BC87B
:02230600E1CD27
:023210007BC879
:0223080059CFAB
:023212007BC877
:04230A003CDC52CE97
:023214007CC874
:02230E0043CCBE
:023216007CC872
:0623100039DCD8DDECCC45
:023218007EC86E
:0623160069819FDDDCCCB3
:02321A0080C86A
:06231C006981B6DDD9CC99
:02321C0082C866
:0423220086DCD7CCB2
:02321E0083C863
:02232600D8CD10
:0232200083C861
:0423280083DC3ECF45
:0232220084C85E
:04232C00A0DCE2CC83
:0232240085C85B
:02233000F3CCEC
:0232260085C859
:062332002BDCC4DDDECC53
:0232280087C855
:062338006A818EDDCDCCB0
:02322A0089C851
:06233E006A81A5DDCACC96
:02322C008BC84D
:0423440075DCC8CCB0
:02322E008CC84A
:02234800D6CDF0
:023230008CC848
:04234A0072DC16CD5E
:023232008DC845
:04234E001DDC30CE94
:023234008EC842
:0223520031CC8C
:023236008EC840
:062354001ADCB6DDCDCC61
:0232380090C83C
:06235A006B817DDDBECCAD
:02323A0092C838
:062360006B8194DDBBCC93
:02323C0094C834
:0423660064DCB9CCAE
:02323E0095C831
:02236A00BDCDE7
:0232400095C82F
:06236C0061DCF4DE04CD8B
:0232420097C82B
:042372007DDCC2CC80
:0232440098C828
:042376007BDC29CE15
:0232460099C825
:06237A000ADCA0DDBDCC71
:023248009BC821
:062380006C816ADDADCCAA
:02324A009DC81D
:062386006C8181DDAACC90
:02324C009FC819
:04238C0051DCA8CCAC
:02324E00A0C816
:06239000692D5EDE9BCC0E
:02325000A2C812
:062396004CDCE4DEEFCC9C
:02325200A4C80E
:04239C00F9DB09CE92
:02325400A5C80B
:0623A00066DC2BDEAACC76
:02325600A7C807
:0623A600F4DB8DDDA7CC85
:02325800A9C803
:0623AC006D8154DD99CCA7
:02325A00ABC8FF
:0623B2006D816BDD96CC8D
:02325C00ADC8FB
:0423B8003BDC94CCAA
:02325E00AEC8F8
:0223BC0086CECB
:02326000AEC8F6
:0623BE0038DCD5DEDBCCAB
:02326200B0C8F2
:0423C40054DCD5CC44
:02326400B1C8EF
:0423C80052DC15CD01
:02326600B2C8EC
:0623CC00B70177DDD0CC63
:02326800B4C8E8
:0623D20001DC41DDACCC92
:02326A00B6C8E4
:0623D800FEDB58DDA9CC7C
:02326C00B8C8E0
:0423DE0028DCA7CC84
:02326E00B9C8DD
:0223E2006ACEC1
:02327000B9C8DB
:0623E40025DCC7DEC8CCB9
:02327200BBC8D7
:0423EA00B701E2CD88
:02327400BCC8D4
:0623EE003FDC21DE6CCC97
:02327600BEC8D0
:0623F400B70166DDBCCC60
:02327800C0C8CC
:0223FA003BCDD9
:02327A00C0C8CA
:0223FC0053CDBF
:02327C00C0C8C8
:0423FE0018DC65CCB6
:02327E00C1C8C5
:022402005DCEAD
:043280000895C0C825
:04240400698164CCBA
:02328400C1C8BF
:042408006A8162CCB7
:02328600C2C8BC
:04240C006B8160CCB4
:02328800C3C8B9
:042410006C815ECCB1
:02328A00C4C8B6
:042414006D815CCCAE
:02328C00C5C8B3
:04241800DEDB5ACCE1
:02328E00C6C8B0
:04241C00692D58CC02
:02329000C7C8AD
:04242000688158CCAB
:043292000895C7C80C
:042424006A8156CCA7
:02329600C8C8A6
:042428006B8154CCA4
:02329800C9C8A3
:04242C006C8152CCA1
:02329A00CAC8A0
:042430006D8150CC9E
:02329C00CBC89D
:04243400D0DB4ECCDF
:02329E00CCC89A
:04243800692D4CCCF2
:0232A000CDC897
:04243C0068814CCC9B
:0232A200CEC894
:0424400069814ACC98
:0432A4000895CEC8F3
:042444006B8148CC94
:0232A800CFC88D
:042448006C8146CC91
:0232AA00D0C88A
:04244C006D8144CC8E
:0232AC00D1C887
:04245000C2DB42CCDD
:0232AE00D2C884
:04245400692D40CCE2
:0232B000D3C881
:04245800688140CC8B
:0232B200D4C87E
:04245C0069813ECC88
:0232B400D5C87B
:042460006A813CCC85
:0432B6000895D5C8DA
:042464006C813ACC81
:0232BA00D6C874
:042468006D8138CC7E
:0232BC00D7C871
:04246C00B4DB36CCDB
:0232BE00D8C86E
:04247000692D34CCD2
:0232C000D9C86B
:04247400688134CC7B
:0232C200DAC868
:04247800698132CC78
:0232C400DBC865
:04247C006A8130CC75
:0232C600DCC862
:042480006B812ECC72
:0432C8000895DCC8C1
:042484006D812CCC6E
:0232CC00DDC85B
:04248800A6DB2ACCD9
:0232CE00DEC858
:04248C00692D28CCC2
:0232D000DFC855
:04249000688128CC6B
:0232D200E0C852
:04249400698126CC68
:0232D400E1C84F
:042498006A8124CC65
:0232D600E2C84C
:04249C006B8122CC62
:0232D800E3C849
:0424A0006C8120CC5F
:0432DA000895E3C8A8
:0424A40098DB1ECCD7
:0232DE00E4C842
:0424A800692D1CCCB2
:0232E000E5C83F
:0424AC00688140CC37
:0232E200E6C83C
:0424B00069813ECC34
:0232E400E7C839
:0424B4006A813CCC31
:0232E600E8C836
:0424B8006B813ACC2E
:0232E800E9C833
:0424BC006C8138CC2B
:0232EA00EAC830
:0424C0006D8136CC28
:0232EC00EBC82D
:0224C400B1CC99
:0232EE00EBC82B
:0424C600692D33CC7D
:0232F000ECC828
:0424CA006881FFCB5B
:0232F200EDC825
:0424CE006981FDCB58
:0232F400EEC822
:0424D2006A81FBCB55
:0232F600EFC81F
:0424D6006B81F9CB52
:0232F800F0C81C
:0424DA006C81F7CB4F
:0232FA00F1C819
:0424DE006D81F5CB4C
:0232FC00F2C816
:0424E20079DBF3CBE4
:0432FE000895F2C875
:0424E60068810ECD2E
:02330200F3C80E
:0424EA0069810CCD2B
:02330400F4C80B
:0424EE006A810ACD28
:02330600F5C808
:0424F2006B8108CD25
:02330800F6C805
:0424F6006C8106CD22
:02330A00F7C802
:0424FA006D8104CD1F
:02330C00F8C8FF
:0424FE006BDB02CDC5
:02330E00F9C8FC
:04250200692D00CD72
:02331000FAC8F9
:0425060068810ACD11
:02331200FBC8F6
:04250A00698108CD0E
:02331400FCC8F3
:04250E006A8106CD0B
:02331600FDC8F0
:042512006B8104CD08
:02331800FEC8ED
:042516006C8102CD05
:02331A00FFC8EA
:04251A006D8100CD02
:02331C0000C9E6
:04251E005BDBFECCB9
:02331E0001C9E3
:04252200692DFCCC57
:0233200002C9E0
:04252600688109CDF2
:0233220003C9DD
:04252A00698107CDEF
:0233240004C9DA
:04252E006A8105CDEC
:0233260005C9D7
:042532006B8103CDE9
:0233280006C9D4
:042536006C8101CDE6
:02332A0007C9D1
:04253A006D81FFCCE4
:02332C0008C9CE
:04253E004BDBFDCCAA
:02332E0009C9CB
:04254200692DFBCC38
:023330000AC9C8
:04254600688114CDC7
:023332000BC9C5
:04254A00698112CDC4
:023334000CC9C2
:04254E006A8110CDC1
:023336000DC9BF
:042552006B810ECDBE
:023338000EC9BC
:042556006C810CCDBB
:02333A000FC9B9
:04255A006D810ACDB8
:02333C0010C9B6
:04255E003BDB08CD8E
:02333E0011C9B3
:04256200692D06CD0C
:0233400012C9B0
:04256600688114CDA7
:0233420013C9AD
:04256A00698112CDA4
:0233440014C9AA
:04256E006A8110CDA1
:0233460015C9A7
:042572006B810ECD9E
:0233480016C9A4
:042576006C810CCD9B
:02334A0017C9A1
:04257A006D810ACD98
:02334C0018C99E
:04257E002BDB08CD7E
:02334E0019C99B
:04258200692D06CDEC
:023350001AC998
:0425860068810FCD8C
:023352001BC995
:04258A0069810DCD89
:023354001CC992
:04258E006A810BCD86
:023356001DC98F
:042592006B8109CD83
:023358001EC98C
:042596006C8107CD80
:02335A001FC989
:04259A006D8105CD7D
:02335C0020C986
:04259E001BDB03CD73
:02335E0021C983
:0425A200692D01CDD1
:0233600022C980
:0425A6006881FACC82
:0233620023C97D
:0425AA006981F8CC7F
:0233640024C97A
:0425AE006A81F6CC7C
:0233660025C977
:0425B2006B81F4CC79
:0233680026C974
:0425B6006C81F2CC76
:02336A0027C971
:0425BA006D81F0CC73
:02336C0028C96E
:0425BE000BDBEECC79
:02336E0029C96B
:0425C200692DECCCC7
:023370002AC968
:0425C6006881C6CC96
:023372002BC965
:0425CA006981C4CC93
:023374002CC962
:0425CE006A81C2CC90
:023376002DC95F
:0425D2006B81C0CC8D
:023378002EC95C
:0425D6006C81BECC8A
:02337A002FC959
:0425DA006D81BCCC87
:02337C0030C956
:0425DE00FBDABACC9E
:02337E0031C953
:0425E200692DB8CCDB
:0233800032C950
:0425E600B8DDCFCBC2
:0233820033C94D
:0425EA0089DD80CB3C
:0233840034C94A
:0625EE003FDBB3DDC1CBB1
:0233860036C946
:0425F4003CDBBFCB42
:0233880037C943
:0625F8003ADBAEDDE4CB8E
:02338A0039C93F
:0425FE00C2DA67CD09
:02338C003AC93C
:0426020016DB80CC97
:02338E003BC939
:0426060050DBDECBFC
:023390003CC936
:04260A00ABDDBDCBBC
:023392003DC933
:02260E00BCCB43
:023394003DC931
:062610002EDBA7DDB0CBBC
:023396003FC92D
:0226160017CEDD
:023398003FC92B
:062618002ADBA3DDD4CB98
:02339A0041C927
:04261E0027DBD2CB19
:02339C0042C924
:0426220006DB7CCC8B
:04339E0033C942C924
:04262600A2DDAFCBB7
:0233A20043C91D
:04262A0069DD63CB38
:0233A40044C91A
:06262E001FDB9DDDA1CBC6
:0233A60046C916
:04263400FDDA08CCF7
:0233A80047C913
:062638001ADB98DDC4CBA3
:0233AA0049C90F
:04263E00A5DA47CD05
:0233AC004AC90C
:04264200F6DA7BCC7D
:0433AE002BC94AC914
:0426460097DD9FCBB2
:0233B2004BC905
:02264A00BFCD02
:0233B4004BC903
:06264C0010DB93DD92CBD0
:0233B6004DC9FF
:04265200EEDAFDCBF4
:0233B8004EC9FC
:062656000BDB8EDDB5CBAD
:0233BA0050C9F8
:02265C00D2CDDD
:0233BC0050C9F6
:04265E00E8DA88CC62
:0433BE0023C950C906
:042662008EDD91CBAD
:0233C20051C9EF
:042666004BDD48CB35
:0233C40052C9EC
:06266A0001DB89DD83CBDA
:0233C60054C9E8
:06267000C2DA64DD69CB53
:0233C80056C9E4
:06267600FBDA83DDA5CBB9
:0233CA0058C9E0
:04267C0089DA28CD02
:0233CC0059C9DD
:04268000D7DA87CC52
:0433CE001BC959C9F5
:0426840082DD80CBA8
:0233D2005AC9D6
:0426880083DA75CBB1
:0233D4005BC9D3
:06268C00F0DA7DDD72CBE7
:0233D6005DC9CF
:062692007BDA53DD2ECBC4
:0233D8005FC9CB
:06269800EADA77DD94CBC5
:0233DA0061C9C7
:02269E00A1CDCC
:0233DC0061C9C5
:0426A000C7DA82CC47
:0433DE0013C961C9E5
:0426A40077DD70CBA3
:0233E20062C9BE
:0426A8002ADD1ECB3E
:0233E40063C9BB
:0626AC00E0DA72DD62CBF2
:0233E60065C9B7
:0226B2004ACD0F
:0233E80065C9B5
:0626B400DCDA6EDD86CBCE
:0233EA0067C9B1
:0426BA0061DA09CD0B
:0233EC0068C9AE
:0426BE00B8DA6ECC4C
:0433EE000BC968C9D6
:0426C2006DDD61CB9E
:0233F20069C9A7
:0426C60064DA54CBB3
:0233F4006AC9A4
:0626CA00D1DA68DD53CBFC
:0233F6006CC9A0
:0226D0003FCDFC
:0233F8006CC99E
:0626D200CDDA64DD77CBD8
:0233FA006EC99A
:0226D800A5CD8E
:0233FC006EC998
:0426DA00AADA3CCC70
:0233FE0003C901
:1026DE0060E00895162F0E943307602F40FBFCE345
:1026EE00E02F449140F90895062F19810E94310779
:1026FE000895DB010981F894BBB928B8ABB938B895
:10270E000BB958B8789468B811960881F894BBB98B
:10271E0028B8ABB938B80BB958B8789468B80895DA
:10272E00DB010B81F894BBB928B8ABB938B80BB93B
:10273E0058B8789468B811960A81F894BBB928B83D
:10274E00ABB938B80BB958B8789468B80895DB01AE
:10275E00F894BBB928B8ABB938B8EBB858B8789478
:10276E0068B81196F894BBB928B8ABB938B8FBB8AD
:10277E0058B8789468B808950D811C81889440FDEE
:10278E000894601F0FB7711F1FB76D837C830123E1
:10279E0040E010FB40F913FB42F915FB44F901FB35
:1027AE0046F912FB47F908950D811C81061788948E
:1027BE0040FD0894060B170B0D831C830FB742E0E8
:1027CE0000FB40F903FB42F905FB44F901FB46F916
:1027DE0002FB47F9089500E00919902E0FB7FCE3AC
:1027EE00E92D449100FB40F905FB44F903FB42F946
:1027FE00426008950C8903FB02F90C8BBECA0C894A
:10280E000C7F0C8B08950C890C7F01600C8B089546
:10281E000C890C7F02600C8B08959A8801C09B88EE
:10282E0040FBFCE3E92D449140F90C8903FB42F98E
:10283E0008959A8A08959B8A08956295762F607FEF
:10284E007F70092D0F70602B092D007F072B902EA6
:10285E0040FBFCE3E92D449140F90895762F607F0B
:10286E007F70092D0F70602B6295092D007F072B4D
:10287E00902E40FBFCE3E92D449140F90895F19B25
:10288E006E85F19968890895F19B6F85F199698933
:10289E000895F19903C0BE85AF8502C0B889A98994
:1028AE00F8949BB928B88BB938B87AB848B800C034
:1028BE0000C069B168B878946AB801967727662324
:1028CE000AF47095A60FB71FF894BBB928B8ABB928
:1028DE0038B87AB848B800C000C069B168B8789402
:1028EE006AB80895F19903C06F857E850895698948
:1028FE0078890895F19B6E87F199688B0895F19B05
:10290E006F87F199698B0895F19903C0BE85AF85E4
:10291E0002C0B889A989F8949BB928B88BB938B880
:10292E007AB848B800C000C009B168B878946AB8DF
:10293E000196112700230AF41095A00FB11FF894E9
:10294E00BBB928B8ABB938B86BB958B8789468B871
:10295E000895F894BBB928B8ABB938B86BB958B864
:10296E00789468B80895F19903C0BE85AF8502C00A
:10297E00B889A989F8949BB928B88BB938B87AB8B0
:10298E0048B800C000C009B168B878946AB801961A
:10299E000196112700230AF41095A00FB11FF89489
:1029AE00BBB928B8ABB938B86BB958B8789468B811
:1029BE000895F19903C06F877E870895698B788B90
:1029CE000895DB01F19B0F85F1990989F894BBB944
:1029DE0028B8ABB938B80BB958B8789468B811960E
:1029EE00F19B0E85F1990889F894BBB928B8ABB95B
:1029FE0038B80BB958B8789468B80895F19905C0ED
:102A0E000F851E856F877E8704C009891889698B9B
:102A1E00788BB8010895F19907C00F851E85600F58
:102A2E00711F6F877E8706C009891889600F711F15
:102A3E00698B788B0FB700FB40F905FB44F94D7F8E
:102A4E000895FC81ED81BA81AB8178816981F8941A
:102A5E00FBB928B8EBB938B87AB848B800C000C08E
:102A6E0009B168B878946AB8F894BBB928B8ABB90C
:102A7E0038B80BB958B8789468B8497E6150704030
:102A8E0009F04460698378830895DBDF31961196EF
:102A9E00AB83BA83ED83FC830895D3DF319711970F
:102AAE00AB83BA83ED83FC830895EFDF42FF089575
:102ABE0002970895F2DF42FF089502970895BC81B0
:102ACE00AD81F881E9814B724260F894BBB928B8A8
:102ADE00ABB938B87AB848B800C000C009B168B808
:102AEE0078946AB8192D101B0AF4406809F44064F2
:102AFE000DF44061319709F04460E983F88308953D
:102B0E00DEDF1196AD83BC830895D9DF1197AD83B7
:102B1E00BC830895F5DF46FD089542FF08950297A0
:102B2E000895F3DF46FD089542FF08950297089534
:102B3E004F7B426019810E943307BC81AD810E9498
:102B4E00100308810A95088309F440640895F0DFA4
:102B5E001196AD83BC830895EBDF1197AD83BC83D3
:102B6E000895F5DF46FD089502970895F5DF46FDB9
:102B7E000895029708954F7B42600E9402031981C7
:102B8E000E94310708810A95088309F4406408956C
:102B9E00BC81AD811196AD83BC831197ECDF089596
:102BAE00BC81AD811197AD83BC831196E4DF08958E
:102BBE00EFDF46FD089502970895F2DF46FD089572
:102BCE00029708950027660F071D602BFCE3E62F82
:102BDE004491402B0895669508F46068FCE3E62F57
:102BEE00449167FB40F90895889440FD0894661F50
:102BFE000FB7FCE3E62F449100FB40F9089567956B
:102C0E000FB740FB67F9FCE3E62F449100FB40F958
:102C1E000895660F0FB7FCE3E62F449100FB40F9D1
:102C2E00089566950FB766FB67F9FCE3E62F4491AE
:102C3E0000FB40F908950894661F0FB7FCE3E62FDA
:102C4E00449100FB40F9089566950FB7FCE3E62F1B
:102C5E00449100FB40F9089500E80DC000E40BC05C
:102C6E0000E209C000E107C008E005C004E003C0AF
:102C7E0002E001C001E006230FB740614D7F01FB6A
:042C8E0046F9089566
:1034000008950895089508950895089508950895D4
:1034100008950895089508950895089508950895C4
:1034200008950895089508950895089508950895B4
:1034300008950895089508950895089508950895A4
:103440000895089508950895089508950895089594
:103450000895089508950895089508950895089584
:103460000895089508950895089508950895089574
:103470000895089508950895089508950895089564
:0234800008CC76
:062C9200698126DD1CC86B
:023482000ACC72
:042C980068812DCD55
:023484000BCC6F
:062C9C000E94C20D8ACD6A
:023486000DCC6B
:062CA2000E94370E2CCD4C
:0A348800ADC9BBC9BFC9D8C90BCC40
:062CA80069811BDD13C869
:023492000DCC5F
:042CAE00698122CD49
:023494000ECC5C
:062CB2000E94C20D67CD77
:0234960010CC58
:082CB8000E94370E9ED917C8D7
:0A349800A5C9B3C9B7C9D2C90FCC4A
:062CC00069810FDD09C867
:0234A20011CC4B
:042CC6006A8116CD3C
:0234A40012CC48
:062CCA000E94C50D73CD50
:0234A60014CC44
:062CD0000E94370E2CCD1E
:0A34A8009DC9ABC9B3C9BCC912CC61
:062CD600698104DD00C865
:0234B20014CC38
:042CDC006B810BCD30
:0234B40015CC35
:062CE0000E94C50D50CD5D
:0234B60017CC31
:082CE6000E94370E87D903C8D4
:0A34B80095C9A3C9B0C9B6C916CC66
:082CEE006981F8DC0C94700E02
:0234C20019CC23
:042CF6006C81FECC23
:0234C4001ACC20
:062CFA000E94C80D5BCD35
:0234C6001CCC1C
:042D00000C94BB1163
:0834C8008DC99BC99FC91ACCF4
:082D04000E94EB0DB0DD12C8C6
:0234D0001DCC11
:082D0C006981E9DC0C94720EF0
:0234D20020CC0C
:042D14006D81EFCC12
:0234D40021CC09
:062D18000E94C80D34CD3D
:0234D60023CC05
:042D1E000C94D01130
:0834D80085C993C997C921CCF5
:082D22000E94EB0D90DD03C8D7
:0234E00024CCFA
:042D2A006981DACC15
:0234E20025CCF7
:042D2E00D7DCE2CC40
:0234E40026CCF4
:042D3200B70140CDD8
:0234E60027CCF1
:062D36000E94370E10CDD3
:0A34E8007DC98BC993C9089525CC56
:082D3C006981D1DC0C94660EE4
:0234F20028CCE4
:042D4400692DD7CC52
:0234F40029CCE1
:042D4800B7011DCDE5
:0234F6002ACCDE
:082D4C000E94370E54D90FC894
:1034F80075C983C990C908950895089508950895D0
:1035080008950895089508950895089508950895CB
:1035180008950895089508950895089508950895BB
:1035280008950895089508950895089508950895AB
:103538000895089508950895ABCAE5CA0BCB2BCB1F
:103548000895089508950895ABCAE2CA08CB2BCB15
:103558000895089508950895ABCADFCA05CB2BCB0B
:103568000895089508950895A8CADECA02CB28CB05
:10357800089508950895089508950895089508955B
:10358800089508950895089508950895089508954B
:10359800089508950895089508950895089508953B
:1035A800089508950895089508950895089508952B
:1035B800089508950895089508950895089508951B
:1035C800089508950895089508950895089508950B
:1035D80008950895089508950895089508950895FB
:1035E80008950895089508950895089508950895EB
:0A35F8000895089508950895A9CBE1
:022D540044CA6F
:10360200A8CBA7CBA6CBA5CBA4CBA3CBA2CBA1CB3C
:02361200A1CB4A
:062D56000E94C20D64CED4
:103614009FCB9ECB9DCB9CCB9BCB9ACB99CB98CB72
:1036240097CB96CB95CB94CB93CB92CB91CB94CB9E
:062D5C000E94C50D61CECE
:103634008FCB8ECB8DCB8CCB8BCB8ACB89CB8FCBCB
:062D62000E94370E2CCE8A
:0236440091CB28
:062D68000E94370E31CE7F
:0236460093CB24
:062D6E00C1DDA6D826CE4F
:0236480095CB20
:062D74008BDD70D8C4CD18
:02364A0097CB1C
:062D7A0088DD87D8C1CD01
:02364C0099CB18
:062D80000E94180EBECDFA
:06364E0082CB81CB99CB79
:042D8600B5DD4DCE9C
:023654009ACB0F
:082D8A000E94370E35D917CE67
:023656009DCB0A
:062D9200AFDD97D814CE5E
:023658009FCB06
:062D98007EDD5ED8B7CD20
:02365A00A1CB02
:062D9E007BDD75D8B4CD09
:02365C00A3CBFE
:062DA4000E94180EB1CDE3
:0C365E007ACB79CB78CB77CB76CBA0CBA6
:062DAA007ADD55D8D8CDFA
:02366A00A2CBF1
:062DB00077DD6CD8D5CDE3
:02366C00A4CBED
:062DB6000E94270EDCCD97
:06366E0072CB71CBA4CB6E
:042DBC00B70132CE5B
:103674006FCB6ECB6DCB6CCB6BCB6ACB69CB68CB92
:0636840067CB66CB9BCB77
:062DC00065DD0C94680EB5
:02368A009DCBD6
:062DC60067DD0C94680EAD
:02368C009FCBD2
:062DCC0069DD0C94680EA5
:0C368E0062CB61CB60CB5FCB5ECB9CCBF2
:062DD2005CDD0C946A0EAA
:02369A009ECBC5
:062DD8005EDD0C946A0EA2
:02369C00A0CBC1
:062DDE0060DD0C946A0E9A
:0C369E005ACB59CB58CB57CB56CB9DCB09
:062DE40053DD0C946C0E9F
:0236AA009FCBB4
:062DEA0055DD0C946C0E97
:0236AC00A1CBB0
:062DF00057DD0C946C0E8F
:0C36AE0052CB51CB50CB4FCB4ECB9ECB20
:062DF6004ADD0C946E0E94
:0236BA00A0CBA3
:062DFC004CDD0C946E0E8C
:0236BC00A2CB9F
:062E02004EDD0C946E0E83
:0436BE004ACBA3CB85
:042E080068817BCD95
:0236C200A4CB97
:042E0C00698179CD92
:0236C400A5CB94
:042E10006A8177CD8F
:0236C600A6CB91
:042E14006B8175CD8C
:0436C80045CBA6CB7D
:042E18003EDD73CD5B
:0236CC00A7CB8A
:062E1C0041DD0C94700E74
:0236CE00A9CB86
:042E2200692D6ECDDB
:0236D000AACB83
:042E2600688171CD81
:0236D200ABCB80
:042E2A0069816FCD7E
:0236D400ACCB7D
:042E2E006A816DCD7B
:0236D600ADCB7A
:042E32006B816BCD78
:0236D800AECB77
:042E36002ADD69CD5B
:0436DA003CCBAECB6C
:062E3A0032DD0C94720E63
:0236DE00B0CB6F
:042E4000692D64CDC7
:0236E000B1CB6C
:042E4400688167CD6D
:0236E200B2CB69
:042E4800698165CD6A
:0236E400B3CB66
:042E4C006A8163CD67
:0236E600B4CB63
:042E50006B8161CD64
:0236E800B5CB60
:042E54006C815FCD61
:0236EA00B6CB5D
:042E58006D815DCD5E
:0436EC0033CBB6CB5B
:042E5C00692D5BCDB4
:0A36F00031CB30CB2FCB2ECBB3CB68
:062E600015DD0C94660E66
:0236FA00B5CB4E
:062E660017DD0C94660E5E
:0236FC00B7CB4A
:062E6C0019DD0C94660E56
:0C36FE002ACB29CB28CB27CB26CBB4CB82
:042E72000CDD48C863
:02370A00B5CB3D
:042E76000FDD46C85E
:02370C00B6CB3A
:042E7A0012DD44C859
:0C370E0022CB21CB20CB1FCB1ECBB2CB9B
:042E7E0006DD4EC857
:02371A00B3CB2F
:042E820009DD4CC852
:02371C00B4CB2C
:042E86000CDD4AC84D
:0C371E001ACB19CB18CB17CB16CBB0CBB5
:042E8A0000DD57C848
:02372A00B1CB21
:042E8E0003DD55C843
:02372C00B2CB1E
:042E920006DD53C83E
:0C372E0012CB11CB10CB0FCB0ECBAECBCF
:042E9600FADC6CC82E
:02373A00AFCB13
:042E9A00FDDC6AC829
:02373C00B0CB10
:042E9E0000DD68C823
:0C373E000ACB09CB08CB07CB06CBACCBE9
:042EA200F4DC76C81E
:02374A00ADCB05
:042EA600F7DC74C819
:02374C00AECB02
:042EAA00FADC72C814
:0C374E0002CB01CB00CBFFCAFECAAACB05
:042EAE00EEDC7BC813
:02375A00ABCBF7
:042EB200F1DC79C80E
:02375C00ACCBF4
:042EB600F4DC77C809
:0C375E00FACAF9CAF8CAF7CAF6CAA8CB22
:042EBA00E8DC70C818
:02376A00A9CBE9
:042EBE00EBDC6EC813
:02376C00AACBE6
:042EC200EEDC6CC80E
:0C376E00F2CAF1CAF0CAEFCAEECAA6CB3C
:042EC600E2DC46C83C
:02377A00A7CBDB
:042ECA00E5DC44C837
:02377C00A8CBD8
:042ECE00E8DC42C832
:10377E00EACAE9CAE8CAE7CAE6CAE5CAE4CAE3CAB7
:0A378E00E2CAE1CAE0CADFCA9DCB1F
:022ED200C9C96C
:10379800DDCADCCADBCADACAD9CAD8CAD7CAD6CA05
:1037A800D5CAD4CAD3CAD2CAD1CAD0CACFCACECA35
:0C37B800CDCACCCACBCACACAC9CA88CBC9
:042ED40014D974CDCC
:0437C400C7CA88CB1D
:0A2ED8000E94FB0D96DD0C94A40E81
:0437C800C5CA8BCB18
:042EE20007DDF5C84B
:0837CC00C3CAC2CAC1CA89CBFD
:062EE60005DD0C94BB0E9B
:1037D400BFCABECABDCABCCABBCABACAB9CAB8CAB9
:1037E400B7CAB6CAB5CAB4CAB3CAB2CAB1CA7CCB1C
:062EEC0002DD0C94B90E9A
:0E37F400AFCAAECAADCAACCAABCAAACA78CBBD
:082EF20068816EDE0C94680E8D
:023802007BCB7E
:082EFA0069816ADE0C946A0E86
:023804007ECB79
:082F02006A8166DE0C946C0E7E
:0238060081CB74
:082F0A006B8162DE0C946E0E77
:0238080084CB6F
:082F12006C815EDE0C94700E70
:02380A0087CB6A
:082F1A006D815ADE0C94720E69
:02380C008ACB65
:0A2F22000E94EB0D55DE0C94980E92
:02380E008ECB5F
:082F2C00692D51DE0C94660EC4
:0238100091CB5A
:082F3400688156DE0C94680E62
:0238120094CB55
:082F3C00698152DE0C946A0E5B
:0238140097CB50
:082F44006A814EDE0C946C0E54
:023816009ACB4B
:082F4C006B814ADE0C946E0E4D
:023818009DCB46
:082F54006C8146DE0C94700E46
:02381A00A0CB41
:082F5C006D8142DE0C94720E3F
:02381C00A3CB3C
:0A2F64000E94EB0D3DDE0C94980E68
:02381E00A7CB36
:082F6E00692D39DE0C94660E9A
:02382000AACB31
:082F760068813EDE0C94680E38
:02382200ADCB2C
:082F7E0069813ADE0C946A0E31
:02382400B0CB27
:082F86006A8136DE0C946C0E2A
:02382600B3CB22
:082F8E006B8132DE0C946E0E23
:02382800B6CB1D
:082F96006C812EDE0C94700E1C
:02382A00B9CB18
:082F9E006D812ADE0C94720E15
:02382C00BCCB13
:0A2FA6000E94EB0D25DE0C94980E3E
:02382E00C0CB0D
:082FB000692D21DE0C94660E70
:02383000C3CB08
:082FB800688128DE0C94680E0C
:02383200C6CB03
:082FC000698124DE0C946A0E05
:02383400C9CBFE
:082FC8006A8120DE0C946C0EFE
:02383600CCCBF9
:082FD0006B811CDE0C946E0EF7
:02383800CFCBF4
:082FD8006C8118DE0C94700EF0
:02383A00D2CBEF
:082FE0006D8114DE0C94720EE9
:02383C00D5CBEA
:0A2FE8000E94EB0D0FDE0C94980E12
:02383E00D9CBE4
:082FF200692D0BDE0C94660E44
:02384000DCCBDF
:082FFA00688111DE0C94680EE1
:02384200DFCBDA
:0830020069810DDE0C946A0ED9
:02384400E2CBD5
:08300A006A8109DE0C946C0ED2
:02384600E5CBD0
:083012006B8105DE0C946E0ECB
:02384800E8CBCB
:08301A006C8101DE0C94700EC4
:02384A00EBCBC6
:083022006D81FDDD0C94720EBE
:02384C00EECBC1
:0A302A000E94EB0DF8DD0C94980EE7
:02384E00F2CBBB
:08303400692DF4DD0C94660E19
:02385000F5CBB6
:08303C006881F8DD0C94680EB8
:02385200F8CBB1
:083044006981F4DD0C946A0EB1
:02385400FBCBAC
:08304C006A81F0DD0C946C0EAA
:02385600FECBA7
:083054006B81ECDD0C946E0EA3
:0238580001CCA1
:08305C006C81E8DD0C94700E9C
:02385A0004CC9C
:083064006D81E4DD0C94720E95
:02385C0007CC97
:0A306C000E94EB0DDFDD0C94980EBE
:02385E000BCC91
:08307600692DDBDD0C94660EF0
:023860000ECC8C
:08307E006881E1DD0C94680E8D
:0238620011CC87
:083086006981DDDD0C946A0E86
:0238640014CC82
:08308E006A81D9DD0C946C0E7F
:0238660017CC7D
:083096006B81D5DD0C946E0E78
:023868001ACC78
:08309E006C81D1DD0C94700E71
:02386A001DCC73
:0830A6006D81CDDD0C94720E6A
:02386C0020CC6E
:0A30AE000E94EB0DC8DD0C94980E93
:02386E0024CC68
:0830B800692DC4DD0C94660EC5
:0238700027CC63
:0830C0006881C9DD0C94680E63
:023872002ACC5E
:0830C8006981C5DD0C946A0E5C
:023874002DCC59
:0830D0006A81C1DD0C946C0E55
:0238760030CC54
:0830D8006B81BDDD0C946E0E4E
:0238780033CC4F
:0830E0006C81B9DD0C94700E47
:02387A0036CC4A
:0830E8006D81B5DD0C94720E40
:02387C0039CC45
:0A30F0000E94EB0DB0DD0C94980E69
:02387E003DCC3F
:0830FA00692DACDD0C94660E9B
:0238800040CC3A
:043102006881BECD55
:0238820041CC37
:043106006981BCCD52
:0238840042CC34
:04310A006A81BACD4F
:0238860043CC31
:04310E006B81B8CD4C
:0238880044CC2E
:043112006C81B6CD49
:02388A0045CC2B
:043116006D81B4CD46
:02388C0046CC28
:06311A000E94EB0DB1CD97
:02388E0048CC24
:04312000692DAFCD99
:0238900049CC21
:043124006881ABCD46
:023892004ACC1E
:043128006981A9CD43
:023894004BCC1B
:04312C006A81A7CD40
:023896004CCC18
:043130006B81A5CD3D
:023898004DCC15
:043134006C81A3CD3A
:02389A004ECC12
:043138006D81A1CD37
:02389C004FCC0F
:06313C000E94EB0D9ECD88
:02389E0051CC0B
:04314200692D9CCD8A
:0238A00052CC08
:04314600688198CD37
:0238A20053CC05
:04314A00698196CD34
:0238A40054CC02
:04314E006A8194CD31
:0238A60055CCFF
:043152006B8192CD2E
:0238A80056CCFC
:043156006C8190CD2B
:0238AA0057CCF9
:04315A006D818ECD28
:0238AC0058CCF6
:06315E000E94EB0D8BCD79
:0238AE005ACCF2
:04316400692D89CD7B
:0238B0005BCCEF
:04316800688185CD28
:0238B2005CCCEC
:04316C00698183CD25
:0238B4005DCCE9
:043170006A8181CD22
:0238B6005ECCE6
:043174006B817FCD1F
:0238B8005FCCE3
:043178006C817DCD1C
:0238BA0060CCE0
:04317C006D817BCD19
:0238BC0061CCDD
:063180000E94EB0D78CD6A
:0238BE0063CCD9
:04318600692D76CD6C
:0238C00064CCD6
:04318A00688172CD19
:0238C20065CCD3
:04318E00698170CD16
:0238C40066CCD0
:043192006A816ECD13
:0238C60067CCCD
:043196006B816CCD10
:0238C80068CCCA
:04319A006C816ACD0D
:0238CA0069CCC7
:04319E006D8168CD0A
:0238CC006ACCC4
:0631A2000E94EB0D65CD5B
:0238CE006CCCC0
:0431A800692D63CD5D
:0238D0006DCCBD
:0431AC0068815FCD0A
:0238D2006ECCBA
:0431B00069815DCD07
:0238D4006FCCB7
:0431B4006A815BCD04
:0238D60070CCB4
:0431B8006B8159CD01
:0238D80071CCB1
:0431BC006C8157CDFE
:0238DA0072CCAE
:0431C0006D8155CDFB
:0238DC0073CCAB
:0631C4000E94EB0D52CD4C
:0238DE0075CCA7
:0431CA00692D50CD4E
:0238E00076CCA4
:0431CE0068814CCDFB
:0238E20077CCA1
:0431D20069814ACDF8
:0238E40078CC9E
:0431D6006A8148CDF5
:0238E60079CC9B
:0431DA006B8146CDF2
:0238E8007ACC98
:0431DE006C8144CDEF
:0238EA007BCC95
:0431E2006D8142CDEC
:0238EC007CCC92
:0631E6000E94EB0D3FCD3D
:0238EE007ECC8E
:0431EC00692D3DCD3F
:0238F0007FCC8B
:0431F000688139CDEC
:0238F20080CC88
:0431F400698137CDE9
:0238F40081CC85
:0431F8006A8135CDE6
:0238F60004C20A
:063D00006B810C943316E8
:0238F80006C206
:063D06006C810C943316E1
:0238FA0008C202
:063D0C006D810C943316DA
:0238FC000AC2FE
:083D12000E94EB0D0C94331626
:0238FE000DC2F9
:063D1A00692D0C94331624
:023900000FC2F4
:083D200068816E7F0C94680EAF
:0239020012C2EF
:083D280069816E7F0C946A0EA4
:0239040015C2EA
:083D30006A816E7F0C946C0E99
:0239060018C2E5
:083D38006B816E7F0C946E0E8E
:023908001BC2E0
:083D40006C816E7F0C94700E83
:02390A001EC2DB
:083D48006D816E7F0C94720E78
:02390C0021C2D6
:0A3D50000E94EB0D6E7F0C94980E9C
:02390E0025C2D0
:083D5A00692D6E7F0C94660ECA
:0239100028C2CB
:083D620068816D7F0C94680E6E
:023912002BC2C6
:083D6A0069816D7F0C946A0E63
:023914002EC2C1
:083D72006A816D7F0C946C0E58
:0239160031C2BC
:083D7A006B816D7F0C946E0E4D
:0239180034C2B7
:083D82006C816D7F0C94700E42
:02391A0037C2B2
:083D8A006D816D7F0C94720E37
:02391C003AC2AD
:0A3D92000E94EB0D6D7F0C94980E5B
:02391E003EC2A7
:083D9C00692D6D7F0C94660E89
:0239200041C2A2
:083DA40068816B7F0C94680E2E
:0239220044C29D
:083DAC0069816B7F0C946A0E23
:0239240047C298
:083DB4006A816B7F0C946C0E18
:023926004AC293
:083DBC006B816B7F0C946E0E0D
:023928004DC28E
:083DC4006C816B7F0C94700E02
:02392A0050C289
:083DCC006D816B7F0C94720EF7
:02392C0053C284
:0A3DD4000E94EB0D6B7F0C94980E1B
:02392E0057C27E
:083DDE00692D6B7F0C94660E49
:023930005AC279
:083DE6006881677F0C94680EF0
:023932005DC274
:083DEE006981677F0C946A0EE5
:0239340060C26F
:083DF6006A81677F0C946C0EDA
:0239360063C26A
:083DFE006B81677F0C946E0ECF
:0239380066C265
:083E06006C81677F0C94700EC3
:02393A0069C260
:083E0E006D81677F0C94720EB8
:02393C006CC25B
:0A3E16000E94EB0D677F0C94980EDC
:02393E0070C255
:083E2000692D677F0C94660E0A
:0239400073C250
:083E280068816F7E0C94680EA6
:0239420076C24B
:083E300069816F7E0C946A0E9B
:0239440079C246
:083E38006A816F7E0C946C0E90
:023946007CC241
:083E40006B816F7E0C946E0E85
:023948007FC23C
:083E48006C816F7E0C94700E7A
:02394A0082C237
:083E50006D816F7E0C94720E6F
:02394C0085C232
:0A3E58000E94EB0D6F7E0C94980E93
:02394E0089C22C
:083E6200692D6F7E0C94660EC1
:023950008CC227
:083E6A0068816F7D0C94680E65
:023952008FC222
:083E720069816F7D0C946A0E5A
:0239540092C21D
:083E7A006A816F7D0C946C0E4F
:0239560095C218
:083E82006B816F7D0C946E0E44
:0239580098C213
:083E8A006C816F7D0C94700E39
:02395A009BC20E
:083E92006D816F7D0C94720E2E
:02395C009EC209
:0A3E9A000E94EB0D6F7D0C94980E52
:02395E00A2C203
:083EA400692D6F7D0C94660E80
:02396000A5C2FE
:083EAC0068816F7B0C94680E25
:02396200A8C2F9
:083EB40069816F7B0C946A0E1A
:02396400ABC2F4
:083EBC006A816F7B0C946C0E0F
:02396600AEC2EF
:083EC4006B816F7B0C946E0E04
:02396800B1C2EA
:083ECC006C816F7B0C94700EF9
:02396A00B4C2E5
:083ED4006D816F7B0C94720EEE
:02396C00B7C2E0
:0A3EDC000E94EB0D6F7B0C94980E12
:02396E00BBC2DA
:083EE600692D6F7B0C94660E40
:02397000BEC2D5
:083EEE0068816F770C94680EE7
:02397200C1C2D0
:083EF60069816F770C946A0EDC
:02397400C4C2CB
:083EFE006A816F770C946C0ED1
:02397600C7C2C6
:083F06006B816F770C946E0EC5
:02397800CAC2C1
:083F0E006C816F770C94700EBA
:02397A00CDC2BC
:083F16006D816F770C94720EAF
:02397C00D0C2B7
:0A3F1E000E94EB0D6F770C94980ED3
:02397E00D4C2B1
:083F2800692D6F770C94660E01
:02398000D7C2AC
:083F3000688161600C94680EC9
:02398200DAC2A7
:083F3800698161600C946A0EBE
:02398400DDC2A2
:083F40006A8161600C946C0EB3
:02398600E0C29D
:083F48006B8161600C946E0EA8
:02398800E3C298
:083F50006C8161600C94700E9D
:02398A00E6C293
:083F58006D8161600C94720E92
:02398C00E9C28E
:0A3F60000E94EB0D61600C94980EB6
:02398E00EDC288
:083F6A00692D61600C94660EE4
:02399000F0C283
:083F7200688162600C94680E86
:02399200F3C27E
:083F7A00698162600C946A0E7B
:02399400F6C279
:083F82006A8162600C946C0E70
:02399600F9C274
:083F8A006B8162600C946E0E65
:02399800FCC26F
:083F92006C8162600C94700E5A
:02399A00FFC26A
:083F9A006D8162600C94720E4F
:02399C0002C364
:0A3FA2000E94EB0D62600C94980E73
:02399E0006C35E
:083FAC00692D62600C94660EA1
:0239A00009C359
:083FB400688164600C94680E42
:0239A2000CC354
:083FBC00698164600C946A0E37
:0239A4000FC34F
:083FC4006A8164600C946C0E2C
:0239A60012C34A
:083FCC006B8164600C946E0E21
:0239A80015C345
:083FD4006C8164600C94700E16
:0239AA0018C340
:083FDC006D8164600C94720E0B
:0239AC001BC33B
:0A3FE4000E94EB0D64600C94980E2F
:0239AE001FC335
:083FEE00692D64600C94660E5D
:0239B00022C330
:083FF600688168600C94680EFC
:0239B20025C32B
:083FFE00698168600C946A0EF1
:0239B40028C326
:084006006A8168600C946C0EE5
:0239B6002BC321
:08400E006B8168600C946E0EDA
:0239B8002EC31C
:084016006C8168600C94700ECF
:0239BA0031C317
:08401E006D8168600C94720EC4
:0239BC0034C312
:0A4026000E94EB0D68600C94980EE8
:0239BE0038C30C
:08403000692D68600C94660E16
:0239C0003BC307
:08403800688160610C94680EC0
:0239C2003EC302
:08404000698160610C946A0EB5
:0239C40041C3FD
:084048006A8160610C946C0EAA
:0239C60044C3F8
:084050006B8160610C946E0E9F
:0239C80047C3F3
:084058006C8160610C94700E94
:0239CA004AC3EE
:084060006D8160610C94720E89
:0239CC004DC3E9
:0A4068000E94EB0D60610C94980EAD
:0239CE0051C3E3
:08407200692D60610C94660EDB
:0239D00054C3DE
:08407A00688160620C94680E7D
:0239D20057C3D9
:08408200698160620C946A0E72
:0239D4005AC3D4
:08408A006A8160620C946C0E67
:0239D6005DC3CF
:084092006B8160620C946E0E5C
:0239D80060C3CA
:08409A006C8160620C94700E51
:0239DA0063C3C5
:0840A2006D8160620C94720E46
:0239DC0066C3C0
:0A40AA000E94EB0D60620C94980E6A
:0239DE006AC3BA
:0840B400692D60620C94660E98
:0239E0006DC3B5
:0840BC00688160640C94680E39
:0239E20070C3B0
:0840C400698160640C946A0E2E
:0239E40073C3AB
:0840CC006A8160640C946C0E23
:0239E60076C3A6
:0840D4006B8160640C946E0E18
:0239E80079C3A1
:0840DC006C8160640C94700E0D
:0239EA007CC39C
:0840E4006D8160640C94720E02
:0239EC007FC397
:0A40EC000E94EB0D60640C94980E26
:0239EE0083C391
:0840F600692D60640C94660E54
:0239F00086C38C
:0840FE00688160680C94680EF3
:0239F20089C387
:08410600698160680C946A0EE7
:0239F4008CC382
:08410E006A8160680C946C0EDC
:0239F6008FC37D
:084116006B8160680C946E0ED1
:0239F80092C378
:08411E006C8160680C94700EC6
:0239FA0095C373
:084126006D8160680C94720EBB
:0239FC0098C36E
:0A412E000E94EB0D60680C94980EDF
:0239FE009CC368
:08413800692D60680C94660E0D
:023A00009FC362
:084140000E94E9150C94680EC1
:023A0200A2C35D
:084148000E94E9150C946A0EB7
:023A0400A5C358
:084150000E94E9150C946C0EAD
:023A0600A8C353
:084158000E94E9150C946E0EA3
:023A0800ABC34E
:084160000E94E9150C94700E99
:023A0A00AEC349
:084168000E94E9150C94720E8F
:043A0C00E2C8B0C399
:084170000E94E9150C94660E93
:023A1000B3C33E
:084178000E94F2150C94680E80
:023A1200B6C339
:084180000E94F2150C946A0E76
:023A1400B9C334
:084188000E94F2150C946C0E6C
:023A1600BCC32F
:084190000E94F2150C946E0E62
:023A1800BFC32A
:084198000E94F2150C94700E58
:023A1A00C2C325
:0841A0000E94F2150C94720E4E
:043A1C00E3C8C4C374
:0841A8000E94F2150C94660E52
:023A2000C7C31A
:0841B0000E94FB150C94680E3F
:023A2200CAC315
:0841B8000E94FB150C946A0E35
:023A2400CDC310
:0841C0000E94FB150C946C0E2B
:023A2600D0C30B
:0841C8000E94FB150C946E0E21
:023A2800D3C306
:0841D0000E94FB150C94700E17
:023A2A00D6C301
:0841D8000E94FB150C94720E0D
:043A2C00E4C8D8C34F
:0841E0000E94FB150C94660E11
:023A3000DBC3F6
:0841E8000E9406160C94680EFB
:023A3200DEC3F1
:0841F0000E9406160C946A0EF1
:023A3400E1C3EC
:0841F8000E9406160C946C0EE7
:023A3600E4C3E7
:084200000E9406160C946E0EDC
:023A3800E7C3E2
:084208000E9406160C94700ED2
:023A3A00EAC3DD
:084210000E9406160C94720EC8
:043A3C00E7C8ECC328
:084218000E9406160C94660ECC
:023A4000EFC3D2
:084220000E9410160C94680EB8
:023A4200F2C3CD
:084228000E9410160C946A0EAE
:023A4400F5C3C8
:084230000E9410160C946C0EA4
:023A4600F8C3C3
:084238000E9410160C946E0E9A
:023A4800FBC3BE
:084240000E9410160C94700E90
:023A4A00FEC3B9
:084248000E9410160C94720E86
:043A4C00E9C800C401
:084250000E9410160C94660E8A
:023A500003C4AD
:084258000E9418160C94680E78
:023A520006C4A8
:084260000E9418160C946A0E6E
:023A540009C4A3
:084268000E9418160C946C0E64
:023A56000CC49E
:084270000E9418160C946E0E5A
:023A58000FC499
:084278000E9418160C94700E50
:023A5A0012C494
:084280000E9418160C94720E46
:043A5C00E9C814C4DD
:084288000E9418160C94660E4A
:023A600017C489
:084290000E9422160C94680E36
:023A62001AC484
:084298000E9422160C946A0E2C
:023A64001DC47F
:0842A0000E9422160C946C0E22
:023A660020C47A
:0842A8000E9422160C946E0E18
:023A680023C475
:0842B0000E9422160C94700E0E
:023A6A0026C470
:0842B8000E9422160C94720E04
:043A6C00EBC828C4B7
:0842C0000E9422160C94660E08
:023A70002BC465
:0842C8000E942B160C94680EF5
:023A72002EC460
:0842D0000E942B160C946A0EEB
:023A740031C45B
:0842D8000E942B160C946C0EE1
:023A760034C456
:0842E0000E942B160C946E0ED7
:023A780037C451
:0842E8000E942B160C94700ECD
:023A7A003AC44C
:0842F0000E942B160C94720EC3
:043A7C00ECC83CC492
:0842F8000E942B160C94660EC7
:103A800000C9FFC8FEC8FDC8FCC8FBC8FAC8F9C811
:103A9000F6C8F5C8F4C8F3C8F2C8F1C8F0C8EFC852
:103AA000ECC8EBC8EAC8E9C8E8C8E7C8E6C8E5C892
:103AB000E2C8E1C8E0C8DFC8DEC8DDC8DCC8DBC8D2
:103AC000D8C8D7C8D6C8D5C8D4C8D3C8D2C8D1C812
:103AD000CEC8CDC8CCC8CBC8CAC8C9C8C8C8C7C852
:103AE000C4C8C3C8C2C8C1C8C0C8BFC8BEC8BDC892
:103AF000BAC8B9C8B8C8B7C8B6C8B5C8B4C8B3C8D2
:023B0000FFC301
:064300006E7F0C94680EB4
:023B020001C4FC
:064306006E7F0C946A0EAC
:023B040003C4F8
:06430C006E7F0C946C0EA4
:023B060005C4F4
:064312006E7F0C946E0E9C
:023B080007C4F0
:064318006E7F0C94700E94
:023B0A0009C4EC
:06431E006E7F0C94720E8C
:023B0C000BC4E8
:044324006E7F08950B
:023B0E000CC4E5
:064328006E7F0C94660E8E
:023B10000EC4E1
:06432E006D7F0C94680E87
:023B120010C4DD
:064334006D7F0C946A0E7F
:023B140012C4D9
:06433A006D7F0C946C0E77
:023B160014C4D5
:064340006D7F0C946E0E6F
:023B180016C4D1
:064346006D7F0C94700E67
:023B1A0018C4CD
:06434C006D7F0C94720E5F
:023B1C001AC4C9
:044352006D7F0895DE
:023B1E001BC4C6
:064356006D7F0C94660E61
:023B20001DC4C2
:06435C006B7F0C94680E5B
:023B22001FC4BE
:064362006B7F0C946A0E53
:023B240021C4BA
:064368006B7F0C946C0E4B
:023B260023C4B6
:06436E006B7F0C946E0E43
:023B280025C4B2
:064374006B7F0C94700E3B
:023B2A0027C4AE
:06437A006B7F0C94720E33
:023B2C0029C4AA
:044380006B7F0895B2
:023B2E002AC4A7
:064384006B7F0C94660E35
:023B30002CC4A3
:06438A00677F0C94680E31
:023B32002EC49F
:06439000677F0C946A0E29
:023B340030C49B
:06439600677F0C946C0E21
:023B360032C497
:06439C00677F0C946E0E19
:023B380034C493
:0643A200677F0C94700E11
:023B3A0036C48F
:0643A800677F0C94720E09
:023B3C0038C48B
:0443AE00677F089588
:023B3E0039C488
:0643B200677F0C94660E0B
:023B40003BC484
:0643B8006F7E0C94680EFC
:023B42003DC480
:0643BE006F7E0C946A0EF4
:023B44003FC47C
:0643C4006F7E0C946C0EEC
:023B460041C478
:0643CA006F7E0C946E0EE4
:023B480043C474
:0643D0006F7E0C94700EDC
:023B4A0045C470
:0643D6006F7E0C94720ED4
:023B4C0047C46C
:0443DC006F7E089553
:023B4E0048C469
:0643E0006F7E0C94660ED6
:023B50004AC465
:0643E6006F7D0C94680ECF
:023B52004CC461
:0643EC006F7D0C946A0EC7
:023B54004EC45D
:0643F2006F7D0C946C0EBF
:023B560050C459
:0643F8006F7D0C946E0EB7
:023B580052C455
:0643FE006F7D0C94700EAF
:023B5A0054C451
:064404006F7D0C94720EA6
:023B5C0056C44D
:04440A006F7D089525
:023B5E0057C44A
:06440E006F7D0C94660EA8
:023B600059C446
:064414006F7B0C94680EA2
:023B62005BC442
:06441A006F7B0C946A0E9A
:023B64005DC43E
:064420006F7B0C946C0E92
:023B66005FC43A
:064426006F7B0C946E0E8A
:023B680061C436
:06442C006F7B0C94700E82
:023B6A0063C432
:064432006F7B0C94720E7A
:023B6C0065C42E
:044438006F7B0895F9
:023B6E0066C42B
:06443C006F7B0C94660E7C
:023B700068C427
:064442006F770C94680E78
:023B72006AC423
:064448006F770C946A0E70
:023B74006CC41F
:06444E006F770C946C0E68
:023B76006EC41B
:064454006F770C946E0E60
:023B780070C417
:06445A006F770C94700E58
:023B7A0072C413
:064460006F770C94720E50
:023B7C0074C40F
:044466006F770895CF
:023B7E0075C40C
:06446A006F770C94660E52
:023B800077C408
:0644700061600C94680E6F
:023B820079C404
:0644760061600C946A0E67
:023B84007BC400
:06447C0061600C946C0E5F
:023B86007DC4FC
:0644820061600C946E0E57
:023B88007FC4F8
:0644880061600C94700E4F
:023B8A0081C4F4
:06448E0061600C94720E47
:023B8C0083C4F0
:0444940061600895C6
:023B8E0084C4ED
:0644980061600C94660E49
:023B900086C4E9
:06449E0062600C94680E40
:023B920088C4E5
:0644A40062600C946A0E38
:023B94008AC4E1
:0644AA0062600C946C0E30
:023B96008CC4DD
:0644B00062600C946E0E28
:023B98008EC4D9
:0644B60062600C94700E20
:023B9A0090C4D5
:0644BC0062600C94720E18
:023B9C0092C4D1
:0444C2006260089597
:023B9E0093C4CE
:0644C60062600C94660E1A
:023BA00095C4CA
:0644CC0064600C94680E10
:023BA20097C4C6
:0644D20064600C946A0E08
:023BA40099C4C2
:0644D80064600C946C0E00
:023BA6009BC4BE
:0644DE0064600C946E0EF8
:023BA8009DC4BA
:0644E40064600C94700EF0
:023BAA009FC4B6
:0644EA0064600C94720EE8
:023BAC00A1C4B2
:0444F0006460089567
:023BAE00A2C4AF
:0644F40064600C94660EEA
:023BB000A4C4AB
:0644FA0068600C94680EDE
:023BB200A6C4A7
:0645000068600C946A0ED5
:023BB400A8C4A3
:0645060068600C946C0ECD
:023BB600AAC49F
:06450C0068600C946E0EC5
:023BB800ACC49B
:0645120068600C94700EBD
:023BBA00AEC497
:0645180068600C94720EB5
:023BBC00B0C493
:04451E006860089534
:023BBE00B1C490
:0645220068600C94660EB7
:023BC000B3C48C
:0645280060610C94680EB6
:023BC200B5C488
:06452E0060610C946A0EAE
:023BC400B7C484
:0645340060610C946C0EA6
:023BC600B9C480
:06453A0060610C946E0E9E
:023BC800BBC47C
:0645400060610C94700E96
:023BCA00BDC478
:0645460060610C94720E8E
:023BCC00BFC474
:04454C00606108950D
:023BCE00C0C471
:0645500060610C94660E90
:023BD000C2C46D
:0645560060620C94680E87
:023BD200C4C469
:06455C0060620C946A0E7F
:023BD400C6C465
:0645620060620C946C0E77
:023BD600C8C461
:0645680060620C946E0E6F
:023BD800CAC45D
:06456E0060620C94700E67
:023BDA00CCC459
:0645740060620C94720E5F
:023BDC00CEC455
:04457A0060620895DE
:023BDE00CFC452
:06457E0060620C94660E61
:023BE000D1C44E
:0645840060640C94680E57
:023BE200D3C44A
:06458A0060640C946A0E4F
:023BE400D5C446
:0645900060640C946C0E47
:023BE600D7C442
:0645960060640C946E0E3F
:023BE800D9C43E
:06459C0060640C94700E37
:023BEA00DBC43A
:0645A20060640C94720E2F
:023BEC00DDC436
:0445A80060640895AE
:023BEE00DEC433
:0645AC0060640C94660E31
:023BF000E0C42F
:0645B20060680C94680E25
:023BF200E2C42B
:0645B80060680C946A0E1D
:023BF400E4C427
:0645BE0060680C946C0E15
:023BF600E6C423
:0645C40060680C946E0E0D
:023BF800E8C41F
:0645CA0060680C94700E05
:023BFA00EAC41B
:0645D00060680C94720EFD
:023BFC00ECC417
:0445D600606808957C
:023BFE00EDC414
:0645DA0060680C94660EFF
:103C00004400000400040400080C0C080C08080C14
:103C100000040400040000040C08080C080C0C0844
:103C200020242420242020242C28282C282C2C2834
:103C30002420202420242420282C2C282C28282C24
:103C400000040400040000040C08080C080C0C0814
:103C50000400000400040400080C0C080C08080C04
:103C60002420202420242420282C2C282C28282CF4
:103C700020242420242020242C28282C282C2C28E4
:103C800080848480848080848C88888C888C8C88D4
:103C90008480808480848480888C8C888C88888CC4
:103CA000A4A0A0A4A0A4A4A0A8ACACA8ACA8A8ACB4
:103CB000A0A4A4A0A4A0A0A4ACA8A8ACA8ACACA8A4
:103CC0008480808480848480888C8C888C88888C94
:103CD00080848480848080848C88888C888C8C8884
:103CE000A0A4A4A0A4A0A0A4ACA8A8ACA8ACACA874
:103CF000A4A0A0A4A0A4A4A0A8ACACA8ACA8A8AC64
:00000001FF
